{
  "_format": "hh3-artifact-1",
  "contractName": "TokenVault",
  "sourceName": "contracts/TokenVault.sol",
  "abi": [
    {
      "inputs": [],
      "stateMutability": "nonpayable",
      "type": "constructor"
    },
    {
      "anonymous": false,
      "inputs": [
        {
          "indexed": true,
          "internalType": "address",
          "name": "user",
          "type": "address"
        },
        {
          "indexed": false,
          "internalType": "uint256",
          "name": "amount",
          "type": "uint256"
        }
      ],
      "name": "Deposited",
      "type": "event"
    },
    {
      "anonymous": false,
      "inputs": [
        {
          "indexed": true,
          "internalType": "address",
          "name": "previousOwner",
          "type": "address"
        },
        {
          "indexed": true,
          "internalType": "address",
          "name": "newOwner",
          "type": "address"
        }
      ],
      "name": "OwnershipTransferred",
      "type": "event"
    },
    {
      "anonymous": false,
      "inputs": [
        {
          "indexed": true,
          "internalType": "address",
          "name": "user",
          "type": "address"
        },
        {
          "indexed": false,
          "internalType": "uint256",
          "name": "amount",
          "type": "uint256"
        }
      ],
      "name": "Withdrawn",
      "type": "event"
    },
    {
      "inputs": [
        {
          "internalType": "address",
          "name": "",
          "type": "address"
        }
      ],
      "name": "balances",
      "outputs": [
        {
          "internalType": "uint256",
          "name": "",
          "type": "uint256"
        }
      ],
      "stateMutability": "view",
      "type": "function"
    },
    {
      "inputs": [],
      "name": "deposit",
      "outputs": [],
      "stateMutability": "payable",
      "type": "function"
    },
    {
      "inputs": [],
      "name": "owner",
      "outputs": [
        {
          "internalType": "address",
          "name": "",
          "type": "address"
        }
      ],
      "stateMutability": "view",
      "type": "function"
    },
    {
      "inputs": [
        {
          "internalType": "address",
          "name": "newOwner",
          "type": "address"
        }
      ],
      "name": "transferOwnership",
      "outputs": [],
      "stateMutability": "nonpayable",
      "type": "function"
    },
    {
      "inputs": [
        {
          "internalType": "uint256",
          "name": "amount",
          "type": "uint256"
        }
      ],
      "name": "withdraw",
      "outputs": [],
      "stateMutability": "nonpayable",
      "type": "function"
    },
    {
      "inputs": [],
      "name": "withdrawAll",
      "outputs": [],
      "stateMutability": "nonpayable",
      "type": "function"
    },
    {
      "inputs": [
        {
          "internalType": "uint256",
          "name": "amount",
          "type": "uint256"
        }
      ],
      "name": "withdrawSpecificAmount",
      "outputs": [],
      "stateMutability": "nonpayable",
      "type": "function"
    }
  ],
  "bytecode": "0x6080604052348015600e575f5ffd5b50335f5f6101000a81548173ffffffffffffffffffffffffffffffffffffffff021916908373ffffffffffffffffffffffffffffffffffffffff160217905550610d178061005b5f395ff3fe60806040526004361061006f575f3560e01c8063853828b61161004d578063853828b6146100ff5780638da5cb5b14610115578063d0e30db01461013f578063f2fde38b146101495761006f565b806327e235e3146100735780632e1a7d4d146100af57806376778d6e146100d7575b5f5ffd5b34801561007e575f5ffd5b50610099600480360381019061009491906108f6565b610171565b6040516100a69190610939565b60405180910390f35b3480156100ba575f5ffd5b506100d560048036038101906100d0919061097c565b610186565b005b3480156100e2575f5ffd5b506100fd60048036038101906100f8919061097c565b610353565b005b34801561010a575f5ffd5b5061011361048d565b005b348015610120575f5ffd5b506101296105c6565b60405161013691906109b6565b60405180910390f35b6101476105ea565b005b348015610154575f5ffd5b5061016f600480360381019061016a91906108f6565b6106cf565b005b6001602052805f5260405f205f915090505481565b8060015f3373ffffffffffffffffffffffffffffffffffffffff1673ffffffffffffffffffffffffffffffffffffffff1681526020019081526020015f20541015610206576040517f08c379a00000000000000000000000000000000000000000000000000000000081526004016101fd90610a29565b60405180910390fd5b8060015f3373ffffffffffffffffffffffffffffffffffffffff1673ffffffffffffffffffffffffffffffffffffffff1681526020019081526020015f205f8282546102529190610a74565b925050819055505f3373ffffffffffffffffffffffffffffffffffffffff168260405161027e90610ad4565b5f6040518083038185875af1925050503d805f81146102b8576040519150601f19603f3d011682016040523d82523d5f602084013e6102bd565b606091505b5050905080610301576040517f08c379a00000000000000000000000000000000000000000000000000000000081526004016102f890610b32565b60405180910390fd5b3373ffffffffffffffffffffffffffffffffffffffff167f7084f5476618d8e60b11ef0d7d3f06914655adb8793e28ff7f018d4c76d505d5836040516103479190610939565b60405180910390a25050565b5f5f9054906101000a900473ffffffffffffffffffffffffffffffffffffffff1673ffffffffffffffffffffffffffffffffffffffff163373ffffffffffffffffffffffffffffffffffffffff16146103e1576040517f08c379a00000000000000000000000000000000000000000000000000000000081526004016103d890610b9a565b60405180910390fd5b5f3373ffffffffffffffffffffffffffffffffffffffff168260405161040690610ad4565b5f6040518083038185875af1925050503d805f8114610440576040519150601f19603f3d011682016040523d82523d5f602084013e610445565b606091505b5050905080610489576040517f08c379a000000000000000000000000000000000000000000000000000000000815260040161048090610b32565b60405180910390fd5b5050565b5f5f9054906101000a900473ffffffffffffffffffffffffffffffffffffffff1673ffffffffffffffffffffffffffffffffffffffff163373ffffffffffffffffffffffffffffffffffffffff161461051b576040517f08c379a000000000000000000000000000000000000000000000000000000000815260040161051290610b9a565b60405180910390fd5b5f3373ffffffffffffffffffffffffffffffffffffffff164760405161054090610ad4565b5f6040518083038185875af1925050503d805f811461057a576040519150601f19603f3d011682016040523d82523d5f602084013e61057f565b606091505b50509050806105c3576040517f08c379a00000000000000000000000000000000000000000000000000000000081526004016105ba90610b32565b60405180910390fd5b50565b5f5f9054906101000a900473ffffffffffffffffffffffffffffffffffffffff1681565b5f341161062c576040517f08c379a000000000000000000000000000000000000000000000000000000000815260040161062390610c02565b60405180910390fd5b3460015f3373ffffffffffffffffffffffffffffffffffffffff1673ffffffffffffffffffffffffffffffffffffffff1681526020019081526020015f205f8282546106789190610c20565b925050819055503373ffffffffffffffffffffffffffffffffffffffff167f2da466a7b24304f47e87fa2e1e5a81b9831ce54fec19055ce277ca2f39ba42c4346040516106c59190610939565b60405180910390a2565b5f5f9054906101000a900473ffffffffffffffffffffffffffffffffffffffff1673ffffffffffffffffffffffffffffffffffffffff163373ffffffffffffffffffffffffffffffffffffffff161461075d576040517f08c379a000000000000000000000000000000000000000000000000000000000815260040161075490610b9a565b60405180910390fd5b5f73ffffffffffffffffffffffffffffffffffffffff168173ffffffffffffffffffffffffffffffffffffffff16036107cb576040517f08c379a00000000000000000000000000000000000000000000000000000000081526004016107c290610cc3565b60405180910390fd5b6107d4816107d7565b50565b5f5f5f9054906101000a900473ffffffffffffffffffffffffffffffffffffffff169050815f5f6101000a81548173ffffffffffffffffffffffffffffffffffffffff021916908373ffffffffffffffffffffffffffffffffffffffff1602179055508173ffffffffffffffffffffffffffffffffffffffff168173ffffffffffffffffffffffffffffffffffffffff167f8be0079c531659141344cd1fd0a4f28419497f9722a3daafe3b4186f6b6457e060405160405180910390a35050565b5f5ffd5b5f73ffffffffffffffffffffffffffffffffffffffff82169050919050565b5f6108c58261089c565b9050919050565b6108d5816108bb565b81146108df575f5ffd5b50565b5f813590506108f0816108cc565b92915050565b5f6020828403121561090b5761090a610898565b5b5f610918848285016108e2565b91505092915050565b5f819050919050565b61093381610921565b82525050565b5f60208201905061094c5f83018461092a565b92915050565b61095b81610921565b8114610965575f5ffd5b50565b5f8135905061097681610952565b92915050565b5f6020828403121561099157610990610898565b5b5f61099e84828501610968565b91505092915050565b6109b0816108bb565b82525050565b5f6020820190506109c95f8301846109a7565b92915050565b5f82825260208201905092915050565b7f496e73756666696369656e742062616c616e63650000000000000000000000005f82015250565b5f610a136014836109cf565b9150610a1e826109df565b602082019050919050565b5f6020820190508181035f830152610a4081610a07565b9050919050565b7f4e487b71000000000000000000000000000000000000000000000000000000005f52601160045260245ffd5b5f610a7e82610921565b9150610a8983610921565b9250828203905081811115610aa157610aa0610a47565b5b92915050565b5f81905092915050565b50565b5f610abf5f83610aa7565b9150610aca82610ab1565b5f82019050919050565b5f610ade82610ab4565b9150819050919050565b7f5769746864726177616c207472616e73666572206661696c65640000000000005f82015250565b5f610b1c601a836109cf565b9150610b2782610ae8565b602082019050919050565b5f6020820190508181035f830152610b4981610b10565b9050919050565b7f4f6e6c79206f776e65722063616e2065786563757465207468697300000000005f82015250565b5f610b84601b836109cf565b9150610b8f82610b50565b602082019050919050565b5f6020820190508181035f830152610bb181610b78565b9050919050565b7f4465706f736974206d75737420626520677265746572207468616e207a65726f5f82015250565b5f610bec6020836109cf565b9150610bf782610bb8565b602082019050919050565b5f6020820190508181035f830152610c1981610be0565b9050919050565b5f610c2a82610921565b9150610c3583610921565b9250828201905080821115610c4d57610c4c610a47565b5b92915050565b7f4f776e61626c653a206e6577206f776e657220697320746865207a65726f20615f8201527f6464726573730000000000000000000000000000000000000000000000000000602082015250565b5f610cad6026836109cf565b9150610cb882610c53565b604082019050919050565b5f6020820190508181035f830152610cda81610ca1565b905091905056fea2646970667358221220daf76c405daa5d55ca5f548c3a2fc654884173d3247d3f067a66b79f3461dbb064736f6c634300081c0033",
  "linkReferences": {},
  "deployedLinkReferences": {},
  "immutableReferences": {},
  "inputSourceName": "project/contracts/TokenVault.sol",
  "buildInfoId": "solc-0_8_28-04ed0749a65f4158514a20231d4623c2dd0fdc67"
}