{
  "_format": "hh3-artifact-1",
  "contractName": "TokenVault",
  "sourceName": "contracts/TokenVault.sol",
  "abi": [
    {
      "inputs": [],
      "stateMutability": "nonpayable",
      "type": "constructor"
    },
    {
      "anonymous": false,
      "inputs": [
        {
          "indexed": true,
          "internalType": "address",
          "name": "user",
          "type": "address"
        },
        {
          "indexed": false,
          "internalType": "uint256",
          "name": "amount",
          "type": "uint256"
        }
      ],
      "name": "Deposited",
      "type": "event"
    },
    {
      "anonymous": false,
      "inputs": [
        {
          "indexed": true,
          "internalType": "address",
          "name": "user",
          "type": "address"
        },
        {
          "indexed": false,
          "internalType": "uint256",
          "name": "amount",
          "type": "uint256"
        }
      ],
      "name": "Withdrawn",
      "type": "event"
    },
    {
      "inputs": [
        {
          "internalType": "address",
          "name": "",
          "type": "address"
        }
      ],
      "name": "balances",
      "outputs": [
        {
          "internalType": "uint256",
          "name": "",
          "type": "uint256"
        }
      ],
      "stateMutability": "view",
      "type": "function"
    },
    {
      "inputs": [],
      "name": "deposit",
      "outputs": [],
      "stateMutability": "payable",
      "type": "function"
    },
    {
      "inputs": [],
      "name": "owner",
      "outputs": [
        {
          "internalType": "address",
          "name": "",
          "type": "address"
        }
      ],
      "stateMutability": "view",
      "type": "function"
    },
    {
      "inputs": [
        {
          "internalType": "uint256",
          "name": "amount",
          "type": "uint256"
        }
      ],
      "name": "withdraw",
      "outputs": [],
      "stateMutability": "nonpayable",
      "type": "function"
    },
    {
      "inputs": [],
      "name": "withdrawAll",
      "outputs": [],
      "stateMutability": "nonpayable",
      "type": "function"
    },
    {
      "inputs": [
        {
          "internalType": "uint256",
          "name": "amount",
          "type": "uint256"
        }
      ],
      "name": "withdrawSpecificAmount",
      "outputs": [],
      "stateMutability": "nonpayable",
      "type": "function"
    }
  ],
  "bytecode": "0x6080604052348015600e575f5ffd5b50335f5f6101000a81548173ffffffffffffffffffffffffffffffffffffffff021916908373ffffffffffffffffffffffffffffffffffffffff160217905550610aa38061005b5f395ff3fe608060405260043610610054575f3560e01c806327e235e3146100585780632e1a7d4d1461009457806376778d6e146100bc578063853828b6146100e45780638da5cb5b146100fa578063d0e30db014610124575b5f5ffd5b348015610063575f5ffd5b5061007e600480360381019061007991906106ea565b61012e565b60405161008b919061072d565b60405180910390f35b34801561009f575f5ffd5b506100ba60048036038101906100b59190610770565b610143565b005b3480156100c7575f5ffd5b506100e260048036038101906100dd9190610770565b610310565b005b3480156100ef575f5ffd5b506100f861044a565b005b348015610105575f5ffd5b5061010e610583565b60405161011b91906107aa565b60405180910390f35b61012c6105a7565b005b6001602052805f5260405f205f915090505481565b8060015f3373ffffffffffffffffffffffffffffffffffffffff1673ffffffffffffffffffffffffffffffffffffffff1681526020019081526020015f205410156101c3576040517f08c379a00000000000000000000000000000000000000000000000000000000081526004016101ba9061081d565b60405180910390fd5b8060015f3373ffffffffffffffffffffffffffffffffffffffff1673ffffffffffffffffffffffffffffffffffffffff1681526020019081526020015f205f82825461020f9190610868565b925050819055505f3373ffffffffffffffffffffffffffffffffffffffff168260405161023b906108c8565b5f6040518083038185875af1925050503d805f8114610275576040519150601f19603f3d011682016040523d82523d5f602084013e61027a565b606091505b50509050806102be576040517f08c379a00000000000000000000000000000000000000000000000000000000081526004016102b590610926565b60405180910390fd5b3373ffffffffffffffffffffffffffffffffffffffff167f7084f5476618d8e60b11ef0d7d3f06914655adb8793e28ff7f018d4c76d505d583604051610304919061072d565b60405180910390a25050565b5f5f9054906101000a900473ffffffffffffffffffffffffffffffffffffffff1673ffffffffffffffffffffffffffffffffffffffff163373ffffffffffffffffffffffffffffffffffffffff161461039e576040517f08c379a0000000000000000000000000000000000000000000000000000000008152600401610395906109b4565b60405180910390fd5b5f3373ffffffffffffffffffffffffffffffffffffffff16826040516103c3906108c8565b5f6040518083038185875af1925050503d805f81146103fd576040519150601f19603f3d011682016040523d82523d5f602084013e610402565b606091505b5050905080610446576040517f08c379a000000000000000000000000000000000000000000000000000000000815260040161043d90610926565b60405180910390fd5b5050565b5f5f9054906101000a900473ffffffffffffffffffffffffffffffffffffffff1673ffffffffffffffffffffffffffffffffffffffff163373ffffffffffffffffffffffffffffffffffffffff16146104d8576040517f08c379a00000000000000000000000000000000000000000000000000000000081526004016104cf906109b4565b60405180910390fd5b5f3373ffffffffffffffffffffffffffffffffffffffff16476040516104fd906108c8565b5f6040518083038185875af1925050503d805f8114610537576040519150601f19603f3d011682016040523d82523d5f602084013e61053c565b606091505b5050905080610580576040517f08c379a000000000000000000000000000000000000000000000000000000000815260040161057790610926565b60405180910390fd5b50565b5f5f9054906101000a900473ffffffffffffffffffffffffffffffffffffffff1681565b5f34116105e9576040517f08c379a00000000000000000000000000000000000000000000000000000000081526004016105e090610a1c565b60405180910390fd5b3460015f3373ffffffffffffffffffffffffffffffffffffffff1673ffffffffffffffffffffffffffffffffffffffff1681526020019081526020015f205f8282546106359190610a3a565b925050819055503373ffffffffffffffffffffffffffffffffffffffff167f2da466a7b24304f47e87fa2e1e5a81b9831ce54fec19055ce277ca2f39ba42c434604051610682919061072d565b60405180910390a2565b5f5ffd5b5f73ffffffffffffffffffffffffffffffffffffffff82169050919050565b5f6106b982610690565b9050919050565b6106c9816106af565b81146106d3575f5ffd5b50565b5f813590506106e4816106c0565b92915050565b5f602082840312156106ff576106fe61068c565b5b5f61070c848285016106d6565b91505092915050565b5f819050919050565b61072781610715565b82525050565b5f6020820190506107405f83018461071e565b92915050565b61074f81610715565b8114610759575f5ffd5b50565b5f8135905061076a81610746565b92915050565b5f602082840312156107855761078461068c565b5b5f6107928482850161075c565b91505092915050565b6107a4816106af565b82525050565b5f6020820190506107bd5f83018461079b565b92915050565b5f82825260208201905092915050565b7f696e73756666696369656e742062616c616e63650000000000000000000000005f82015250565b5f6108076014836107c3565b9150610812826107d3565b602082019050919050565b5f6020820190508181035f830152610834816107fb565b9050919050565b7f4e487b71000000000000000000000000000000000000000000000000000000005f52601160045260245ffd5b5f61087282610715565b915061087d83610715565b92508282039050818111156108955761089461083b565b5b92915050565b5f81905092915050565b50565b5f6108b35f8361089b565b91506108be826108a5565b5f82019050919050565b5f6108d2826108a8565b9150819050919050565b7f5769746864726177616c207472616e73666572206661696c65642e00000000005f82015250565b5f610910601b836107c3565b915061091b826108dc565b602082019050919050565b5f6020820190508181035f83015261093d81610904565b9050919050565b7f4f6e6c79206f776e65722063616e2063616c6c20746869732066756e6374696f5f8201527f6e00000000000000000000000000000000000000000000000000000000000000602082015250565b5f61099e6021836107c3565b91506109a982610944565b604082019050919050565b5f6020820190508181035f8301526109cb81610992565b9050919050565b7f4465706f736974206d7573742062652067726561746572207468616e203000005f82015250565b5f610a06601e836107c3565b9150610a11826109d2565b602082019050919050565b5f6020820190508181035f830152610a33816109fa565b9050919050565b5f610a4482610715565b9150610a4f83610715565b9250828201905080821115610a6757610a6661083b565b5b9291505056fea2646970667358221220905856cf95dfbfae493733a5616dcab53489b8829d568d09ba4b1c992a13251964736f6c634300081c0033",
  "linkReferences": {},
  "deployedLinkReferences": {},
  "immutableReferences": {},
  "inputSourceName": "project/contracts/TokenVault.sol",
  "buildInfoId": "solc-0_8_28-4f8861d1861f6323a5b99942cce1aa85b3386670"
}